:020000040000fa
:080000000002040000000000f2
:020000040000fa
:040008007e03000073
:020000040000fa
:04000c007e0300006f
:020000040000fa
:040010007e0300006b
:020000040000fa
:040014007e03000067
:020000040000fa
:040018007e03000063
:020000040000fa
:04001c007e0300005f
:020000040000fa
:040020007e0300005b
:020000040000fa
:040024007e03000057
:020000040000fa
:040028007e03000053
:020000040000fa
:04002c007e0300004f
:020000040000fa
:040030007e0300004b
:020000040000fa
:04003400680300005d
:020000040000fa
:040038007e03000043
:020000040000fa
:04003c007e0300003f
:020000040000fa
:040040007e0300003b
:020000040000fa
:040044007e03000037
:020000040000fa
:040048007e03000033
:020000040000fa
:04004c007e0300002f
:020000040000fa
:040050007e0300002b
:020000040000fa
:040054007e03000027
:020000040000fa
:040058007e03000023
:020000040000fa
:04005c007e0300001f
:020000040000fa
:040060007e0300001b
:020000040000fa
:040064007e03000017
:020000040000fa
:040068007e03000013
:020000040000fa
:04006c007e0300000f
:020000040000fa
:040070007e0300000b
:020000040000fa
:040074007e03000007
:020000040000fa
:04007800cc020000b6
:020000040000fa
:04007c007e030000ff
:020000040000fa
:040080007e030000fb
:020000040000fa
:040084007e030000f7
:020000040000fa
:040088007e030000f3
:020000040000fa
:04008c007e030000ef
:020000040000fa
:040090007e030000eb
:020000040000fa
:040094007e030000e7
:020000040000fa
:040098007e030000e3
:020000040000fa
:04009c007e030000df
:020000040000fa
:0400a0007e030000db
:020000040000fa
:0400a4007e030000d7
:020000040000fa
:0400a8007e030000d3
:020000040000fa
:0400ac007e030000cf
:020000040000fa
:0400b0007e030000cb
:020000040000fa
:0400b4007e030000c7
:020000040000fa
:0400b8007e030000c3
:020000040000fa
:0400bc007e030000bf
:020000040000fa
:0400c0007e030000bb
:020000040000fa
:0400c4007e030000b7
:020000040000fa
:0400c8007e030000b3
:020000040000fa
:0400cc007e030000af
:020000040000fa
:0400d0007e030000ab
:020000040000fa
:0400d4007e030000a7
:020000040000fa
:0400d8007e030000a3
:020000040000fa
:0400dc007e0300009f
:020000040000fa
:0400e0007e0300009b
:020000040000fa
:0400e4007e03000097
:020000040000fa
:0400e8007e03000093
:020000040000fa
:0400ec007e0300008f
:020000040000fa
:0400f0007e0300008b
:020000040000fa
:0400f4007e03000087
:020000040000fa
:0400f8007e03000083
:020000040000fa
:0400fc007e0300007f
:020000040000fa
:040100007e0300007a
:020000040000fa
:040104007e03000076
:020000040000fa
:040108007e03000072
:020000040000fa
:04010c007e0300006e
:020000040000fa
:040110007e0300006a
:020000040000fa
:040114007e03000066
:020000040000fa
:040118007e03000062
:020000040000fa
:04011c007e0300005e
:020000040000fa
:040120007e0300005a
:020000040000fa
:040124007e03000056
:020000040000fa
:040128007e03000052
:020000040000fa
:04012c007e0300004e
:020000040000fa
:040130007e0300004a
:020000040000fa
:040134007e03000046
:020000040000fa
:040138007e03000042
:020000040000fa
:04013c007e0300003e
:020000040000fa
:040140007e0300003a
:020000040000fa
:040144007e03000036
:020000040000fa
:040148007e03000032
:020000040000fa
:04014c007e0300002e
:020000040000fa
:040150007e0300002a
:020000040000fa
:040154007e03000026
:020000040000fa
:040158007e03000022
:020000040000fa
:04015c007e0300001e
:020000040000fa
:040160007e0300001a
:020000040000fa
:040164007e03000016
:020000040000fa
:040208007e03000071
:020000040000fa
:04020c007e0300006d
:020000040000fa
:040210007e03000069
:020000040000fa
:040214007e03000065
:020000040000fa
:040218007e03000061
:020000040000fa
:04021c007e0300005d
:020000040000fa
:040220007e03000059
:020000040000fa
:040224007e03000055
:020000040000fa
:040228007e03000051
:020000040000fa
:04022c007e0300004d
:020000040000fa
:040230007e03000049
:020000040000fa
:040234007e03000045
:020000040000fa
:040238007e03000041
:020000040000fa
:04023c007e0300003d
:020000040000fa
:040240007e03000039
:020000040000fa
:040244007e03000035
:020000040000fa
:040248007e03000031
:020000040000fa
:04024c007e0300002d
:020000040000fa
:040250007e03000029
:020000040000fa
:040254007e03000025
:020000040000fa
:040258007e03000021
:020000040000fa
:04025c007e0300001d
:020000040000fa
:040260007e03000019
:020000040000fa
:040264007e03000015
:020000040000fa
:040268007e03000011
:020000040000fa
:04026c007e0300000d
:020000040000fa
:040270007e03000009
:020000040000fa
:040274007e03000005
:020000040000fa
:040278007e03000001
:020000040000fa
:04027c007e030000fd
:020000040000fa
:040280007e030000f9
:020000040000fa
:040284007e030000f5
:020000040000fa
:040288007e030000f1
:020000040000fa
:04028c007e030000ed
:020000040000fa
:040290007e030000e9
:020000040000fa
:040294007e030000e5
:020000040000fa
:040298007e030000e1
:020000040000fa
:04029c007e030000dd
:020000040000fa
:0402a0007e030000d9
:020000040000fa
:0402a4007e030000d5
:020000040000fa
:0402a8007e030000d1
:020000040000fa
:0402ac007e030000cd
:020000040000fa
:0402b0007e030000c9
:020000040000fa
:0402b4007e030000c5
:020000040000fa
:0402b8007e030000c1
:020000040000fa
:0402bc007e030000bd
:020000040000fa
:0402c0007e030000b9
:020000040000fa
:0402c4007e030000b5
:020000040000fa
:0402c8007e030000b1
:020000040000fa
:0402cc007e030000ad
:020000040000fa
:0402d0007e030000a9
:020000040000fa
:0402d4007e030000a5
:020000040000fa
:0402d8007e030000a1
:020000040000fa
:0402dc007e0300009d
:020000040000fa
:0402e0007e03000099
:020000040000fa
:0402e4007e03000095
:020000040000fa
:0402e8007e03000091
:020000040000fa
:0402ec007e0300008d
:020000040000fa
:0402f0007e03000089
:020000040000fa
:0402f4007e03000085
:020000040000fa
:0402f8007e03000081
:020000040000fa
:0402fc007e0300007d
:020000040000fa
:040300007e03000078
:020000040000fa
:040304007e03000074
:020000040000fa
:040308007e03000070
:020000040000fa
:04030c007e0300006c
:020000040000fa
:040310007e03000068
:020000040000fa
:040314007e03000064
:020000040000fa
:040318007e03000060
:020000040000fa
:04031c007e0300005c
:020000040000fa
:040320007e03000058
:020000040000fa
:040324007e03000054
:020000040000fa
:040328007e03000050
:020000040000fa
:04032c007e0300004c
:020000040000fa
:040330007e03000048
:020000040000fa
:040334007e03000044
:020000040000fa
:040338007e03000040
:020000040000fa
:04033c007e0300003c
:020000040000fa
:040340007e03000038
:020000040000fa
:040344007e03000034
:020000040000fa
:040348007e03000030
:020000040000fa
:04034c007e0300002c
:020000040000fa
:040350007e03000028
:020000040000fa
:040354007e03000024
:020000040000fa
:040358007e03000020
:020000040000fa
:04035c007e0300001c
:020000040000fa
:040360007e03000018
:020000040000fa
:040364007e03000014
:020000040000fa
:10040000af8c20000e7f22000e018800000000004b
:10041000000020000000e000020032000001200087
:100420002002880014000700d70007000000e00049
:1004300003003a00c08f21000100200002003700b5
:100440000000200001002000810f70000100320038
:1004500014000700000020000000e000020032004d
:100460000000020000000000f01202000000000086
:100470000040da000000fe004440a900c03920001e
:100480000000e0000300320000002000a00188000e
:100490004440a800000006008a1f78008b1f7800e7
:1004a0000000060091018800800478000000eb0045
:1004b0001a003700e284440032a0b4009905ba0063
:1004c000e284440032a0b4009906ba00e2844400f9
:1004d00032a0b4000006eb00476fde00fd07b2005b
:1004e000636ce10003003a00ebff07000000eb0043
:1004f0000a003700606ce10004003a00005deb0088
:100500008b05e900fdff3e00040037006168e10053
:10051000010032000086eb000b00070019c7ba008b
:100520001905ba000e04e00003003a000a00e000da
:10053000e0ff3a0000000600fe07b2009e018800be
:100540008a047800f5ff3700395dba008b05e900b1
:100550000c003200295dba008b05e900080032006a
:100560000c00e00003003a00e284440032a0b40032
:10057000f5ff370019ddba008b05e900faff3a00f4
:100580008904e800e184440032a0b40000000600c1
:10059000b004040000000000809fbe00829fbe00e7
:1005a000849fbe00869fbe003400f800000020003b
:1005b000a00188000000fa00304080000000e80040
:1005c000304088005116800000022000008060004a
:1005d0000000e0000d003200208120003002be004b
:1005e0002003be00a08020005001be004000be00dd
:1005f0000000720081807200020173008381730029
:1006000024812000009abe000292be00a08020003b
:100610003002be002003be006000b80012002000bf
:10062000030020000020e10001a8e10002b0e10089
:1006300003b8e10012003a00208120005001be0002
:100640004000be00a4812000009abe000292be00bd
:10065000a480200010002000010020006011b800dc
:10066000009abe000292be00248120006000b80003
:100670006011b800009abe000292be000c00370064
:10068000a08020005001be004000be0000024000db
:100690008182480002034900838349000400be00b0
:1006a0000601be00a4802000009abe000292be0097
:1006b0008680a9000080fa003400f9004f03be00d4
:1006c0004f02be004f01be004f00be0000400600ba
:1006d0003400f800881f780008002000a801880076
:1006e0004f0478000000fa008460a9009460a9001b
:1006f0000080fa003400f900004006000040da00f3
:100700000000fe00889fbe00800478002043800027
:100710000000e00004003a000e0007000084eb0037
:100720000000e00008003500284380000900e000d8
:100730000500320009004400060007000000e00048
:1007400001003d000084eb00080078004f04be006b
:1007500000000600800078000100e00003003a007d
:100760006086200020438800000005000080eb0028
:10077000a28c2000828f500002003e00214388009e
:100780000000eb000000060000000500889fbe008e
:1007900000047800f14280000100e0000200320015
:1007a000010078000d003700014380000086200022
:1007b00004003700910f5400250036000180e80046
:1007c000910090000100e000faff3a0010003700ad
:1007d000920f54001e0036000280e80010017800dd
:1007e0000200e000faff3a001101780001438000a6
:1007f0000086200004003700910f540014003600da
:100800000180e80091009000828f5000faff3a00ca
:1008100019438000888f540001003100880478005b
:1008200009007800440007000000e00004003a00de
:10083000888f5400050032008904d100f5ff37008d
:100840000918780039020700d2ff37000000eb00da
:100850004f04be0000000600881f780063044000bb
:100860000800a1008000eb00800f5400210036003a
:10087000e30f540001003e0048002000080078000b
:10088000c2ff07008000eb000000e000190032000a
:10089000900078009101780064815100880f510028
:1008a00003003100110190000208780007003700b2
:1008b000088140000208780091019000130198001f
:1008c00010017800110914008808780010017800e0
:1008d0000000eb000200e0000400320092019000f2
:1008e0000300e000010032000280e800f0428800ce
:1008f0008180e800010078004f04780000000600c5
:100900008001780002003700b15978000201e90047
:100910000200e000fcff3a000000060080017800c1
:1009200002003700815978000201e9000200e0006e
:10093000fcff3a0000000600800078000000eb0099
:100940000100e00005003400010078006dff0700a1
:10095000e10f400001003a000000eb00000006003b
:10096000881f78000204780008017800e4ff07007f
:10097000080040004f047800000006000000fa0064
:10098000881f780000047800ea8157003fb997007b
:1009900088007800004b2000070007000000e000fe
:1009a000020035008040eb00017478004f047800ad
:1009b0000080fa00000006006200fa00889fbe0076
:1009c0008a1f78000005780081047800020478000e
:1009d0008300780080f92f000f0040000c0407000e
:1009e0009a979f00a9979f000000eb00b09f9f007f
:1009f0001885fb008a04fb000a05ea004f55de005b
:100a000050022000808f54000d003200e10f55008d
:100a10000b003a000a017800880078002f909700b8
:100a20009f91970003000100a0979f000000e00045
:100a30008e0032003f9897000000e800b09f9f00b2
:100a40000a04440050022000808f54000400320049
:100a50000900e000e6ff3a003f9897008400370065
:100a60000000eb00909f9f00809f9f00f0979f00e9
:100a7000e0979f00d0979f00c0979f000700370026
:100a8000818520000100500000004000c18420004a
:100a900061007800df98970001007000d09f9f00f0
:100aa0008804780009047800384578008a00fb0043
:100ab00080852000d90107000000e000f0ff3a0027
:100ac000a1c2b300814f55000e003a00cf889700b5
:100ad0000180e900c08f9f0010007800c09f9f0038
:100ae0000000e00005003d000000ea00c09f9f00fc
:100af0005f9897000020a000d09f9f000904e800a5
:100b00000f003700c09f9f000000eb00050037007a
:100b1000f2ff2700820f5000020032006a01b90084
:100b2000028040000904780088047800b900fb00c6
:100b30000103b100e98f5000f5ff3600c09f9f0010
:100b4000e0c2b300984f1000020032000080eb00ba
:100b500019003700a0c2b300d84f100007003a00b8
:100b6000cf8897000180e900c08f9f0010007800b7
:100b7000a09f9f000804e800100037000000eb0071
:100b8000a09f9f008800780005003700f3ff270032
:100b9000830f5000020032006a02b90004004100d5
:100ba00001047800880078003101fb000203b100e5
:100bb000e90f5100f5ff3600a09f9f009844780090
:100bc0008900fb0040842000940107000000e00041
:100bd000020032000804e800010037008044eb0006
:100be000c97f9f0080c6b30080cf540004003a0044
:100bf00098cf14000a003a00664050000600370003
:100c0000c0c6b30080cf540005003a0098cf14004e
:100c100003003a0065404000c07f9f000804e800e0
:100c20001801fb00e3fb2f008f81410081f92f00a9
:100c30008f804000a0f92f000f0040001000070037
:100c40000000e00009003a00e1fb2f008f80400027
:100c5000a0f92f000f004000b10207000000e000e3
:100c6000020035000804e80061ff37000080eb0057
:100c70004f0578004f04be000080fa000000060017
:100c8000889fbe008a1f780000047800e0c6b30089
:100c9000804f5100c100320015003c006b405000f5
:100ca000804f5100240032000a003c007040500088
:100cb000804f5100fa00320065404000804f5100e3
:100cc0006800320050c2b300804f51000b013a005f
:100cd0000701370040c6b300804f51001b003200af
:100ce00065404000804f510004013a001700370072
:100cf00030c7b300804f5100e900320007003c00cc
:100d000064405000804f5100560032000040e8001f
:100d1000804f5100f9003a00d300370050c7b300ac
:100d2000804f51004f00320063404000804f51001f
:100d3000f2003a004b0037001181e9008208780088
:100d40007800900012417800ea0037002860900097
:100d5000c4c6b300844f500007003a001102780067
:100d600064005200800878001002be004fabde0025
:100d7000860378001100370014c7b300844f500079
:100d800003003200a4c6b300844f500006003a00ae
:100d90001102780068005200800878003002be001e
:100da0002003be00050037001180e90080087800ac
:100db00010027800cfa2de00612bb900049cbe00b7
:100dc0000694be002860900081c6b300814f500099
:100dd0000d00320021c6b300814f500004003a00dc
:100de0000402fb00cfa2de00612bb900080037002f
:100df00041c7b300814f500003003200e6c04000fd
:100e0000814f500004003a00cfa2de00612bb900f0
:100e1000049cbe000694be003802be002803be003b
:100e200078009000d1c2b300e00f5200e08f5a006a
:100e3000e00f5b00e08f5b00080035008810900039
:100e40000118a30002003200b1c2b3000300370052
:100e50000108a3004c00320001c2b3008171780088
:100e60004700370028609000c4c6b300844f50008c
:100e700006003a00110278006400520080087800f1
:100e80001002be006033b8001100370014c7b30071
:100e9000844f500003003200a4c6b300844f5000ba
:100ea00006003a00110278006800520080087800bd
:100eb0003002be002003be00050037001180e900ab
:100ec00080087800100278008002eb006033b800e0
:100ed000049cbe000694be002860900081c6b3004a
:100ee000814f50000d00320021c6b300814f5000e9
:100ef00004003a000482fb008002eb006033b8007b
:100f00000800370041c7b300814f50000300320092
:100f1000e6c04000814f500004003a008002eb0020
:100f20006033b800049cbe000694be000810900018
:100f30000038a300140032003802be002803be00af
:100f4000e00f5200e08f5a00e00f5b00e08f5b0083
:100f50000d00320080c7b300804f51000300320003
:100f600080c5b300804f510007003a007800900020
:100f700001c3b300817178000000e800827178003d
:100f80000000e80070049800780090008081410023
:100f900063049800824078003e003700286190008a
:100fa000c3c6b3001180e900834f51002200320014
:100fb0000a003c00e4c15100834f5100250032007b
:100fc00083c1e800834f510013003200e8c1510093
:100fd000834f51001e003a000a00370043c7b30098
:100fe000834f51001b003200e6c14100834f510086
:100ff00018003200e9c15100834f510014003a003b
:10100000050037008008780010007800485c9000e8
:101010000848780041003700800878001000780008
:10102000680a9000cfa2de00612bb9000498be00d0
:101030000690be0039003700800878001000780064
:1010400068099000cf91de000288be0033003700af
:101050001180e9008008780010007800680c90008a
:10106000080878002d0037001180e900800878001a
:1010700010027800cfa2de00612bb900049cbe00f4
:101080000694be00780090008081410063049800bf
:1010900081c7b30008007800720007001f00370006
:1010a0001180e90080087800100578006a04980033
:1010b000d80c90000900e00004003d000a00780010
:1010c00062000700800478000700370009017800fb
:1010d0008000eb000a007800460007000000e000f6
:1010e000010032008a045000190c98000b003700f0
:1010f0007800900082717800060037007800900038
:10110000808141000204e00001003a0052c2b300b5
:10111000824978000000e800700498000000eb00ad
:101120004f0578004f04be00000006000000e000fc
:101130002f003200c0017800e38f51002c003600f0
:101140000308a3002a003a00014380000100e000e8
:1011500002003200810f500004003100110098009d
:1011600000438800160037008200780011019000cb
:101170000200e00002003200800f5100faff390047
:101180001102780084824000850f50001800390059
:10119000808f520003003a0083084200010078006b
:1011a000070037000200e000030032008301400026
:1011b000830f51000e003900120098009000980033
:1011c000900090000100e000090032001001400092
:1011d000828f500006003a00e28520000009eb00f3
:1011e0001001780011084100910090001100980052
:1011f0000000060003003700b0cf100005003200e9
:101200000201e900800178000200e000faff3a00e4
:10121000000005000300780000000600020037000f
:101220000304e000060032000001780002007800ac
:10123000b041780081cf5100f9ff3a00010037003a
:101240000001eb000200780000000600800078003a
:10125000010178003104e000fdff3a000000510078
:1012600000000600fc874700889fbe008a9fbe00e2
:101270008c9fbe008e1f78000006780080c5b300ea
:1012800080cf50000a0032007740400080cf5000ed
:101290000a0032006940400080cf50000b0032004d
:1012a0003083200080bf9f00ae0020000a0037007e
:1012b0002282200082bf9f00060037003383200077
:1012c00083bf9f008e00200003003700348320007e
:1012d00084bf9f000e0120003c02be002c03be0014
:1012e0000605be000404be0040c6b30080cf500017
:1012f000030032006540400080cf50000b003a00f0
:10130000e00f5200e08f5a00e00f5b00e08f5b00bf
:1013100006003d006000b8006011b80004045000f1
:10132000858458000605590087855900e80f570045
:101330000400320040002000f00f570038003a004f
:101340000100370030002000e00f5400e08f5c0007
:10135000e00f5d00e08f5d0004003a00dc089000c3
:101360008d0120000100e000060032008e00e9003f
:10137000888060008fba9700e5c07800f1ef9f0089
:101380007d012000800078008100e9000500330025
:101390008b05d1000a85d3008984d3000884d3004b
:1013a000f9ff3700089ebe000a96be001200370003
:1013b0008d06e9008e00e900848060000fb9970077
:1013c000e2c1780082fd2f000f01410003f17e0091
:1013d000800078008100e900050033008783d10098
:1013e0000683d3008582d3000482d300f9ff37003f
:1013f000049ebe000696be003c02be002c03be004a
:10140000e00f5200e08f5a00e00f5b00e08f5b00be
:101410008b0034000d00e000e5ff3c008800370041
:101420002c60900081c6b300814f50000b00320049
:1014300006003c000004e00008003200e6c0500056
:10144000814f50004e003a0004003700c1c6b3007f
:10145000814f50004a003a00210037000800e000a8
:1014600004003a005c0890008d0120000000e000bc
:1014700006003200110009000e84d8000fb9970051
:10148000e2c07800f1ef9f007d012000110009000b
:101490000e84d8000a003700110009000e04d8009d
:1014a0008d06e9000e81b900020454008fb8970040
:1014b00061417c0081fd2f008f80400082f07e0022
:1014c000000478000800e000020032000d00e00097
:1014d000f1ff3c00cfc4de00614db90025003700ac
:1014e000e00f5400e08f5c0004003a005c089000bc
:1014f0008d0120000000e000070032006171b9009a
:101500000800be00630107008fb99700e34178002f
:10151000f3ef9f007d0120006171b9000800be005b
:101520004c0107000b0037006171b9000800be00d4
:10153000390107008d06e90000f1b90002045400ea
:101540000fba9700e4427c0084fd2f000f02420096
:1015500005f27e000004be00e00f5000e08f58004e
:10156000020032000d00e000efff3c004fcdde0036
:101570008a057800089ebe000a96be00300037003b
:10158000e00f5400e08f5c00e00f5d00e08f5d0035
:1015900004003a005c0890008d0120000000e0008b
:1015a000090032006172b900612bb9000800be0069
:1015b0000a01be00da0107000fba97006442780002
:1015c000f4ef9f007d0120006172b900612bb9002a
:1015d0000800be000a01be00ca0107000d00370066
:1015e0006172b900612bb9000800be000a01be009b
:1015f000cf0107008d06e90000f2b9000404540091
:101600008fba970065427c0085fd2f008f824200d3
:1016100084f27e00009ebe000296be003c04be0026
:101620002c05be00e00f5400e08f5c00e00f5d0071
:10163000e08f5d00020034000d00e000e8ff3c0098
:10164000e80f570010003a000c1090000038a3007b
:101650000d003200f78f560006003e0085fd2f007a
:101660008f824200e5c07e0000c3b30080cf5000ef
:10167000050032008d06e90002c3b30081fd2f0092
:101680008f80400082f07e0078811600120e980054
:101690006c00900083fd2f008f8141008d80410000
:1016a00097fc07001c089000dc089000810f500098
:1016b00006003d0000805000000e98000c109000c5
:1016c0000040a100001698000f0037000100e00064
:1016d0000d003d008c109000f4806000f08f5000f1
:1016e00009003a007c099000fc0090008100510044
:1016f0000c09900082805000008050004240a900f8
:1017000001003400000e98004f0778004f06be001d
:101710004f05be004f04be00cf01b100000006001f
:101720000400fa00889fbe008a9fbe008c1f7800cc
:101730000004780001067800f80d90007800900011
:101740008085550008089000808555001808900095
:101750008085550028089000808555003808900045
:1017600080855500480890008085550000022200c1
:1017700090bf9f0000032300a0bf9f0008109000af
:101780000028a30015003a000b00e000130034000d
:101790000b0578008a047800e20f5500010036003e
:1017a00029002000c801900009017800ee80570050
:1017b0005800900003000100500498000000e00071
:1017c0008c0032006808900009004000600c98000e
:1017d000090555004240a900eeff3c007801900049
:1017e0000200e0000c003400c80190008c0078007a
:1017f0005800900003000100500498008080eb0026
:101800000000e0007c003200e808900078009000c2
:1018100000804000600c9800880c90000900e000f7
:101820001100340009057800e28f540001003600f1
:101830002a002000c80190000a017800ec805700bf
:101840005800900003000100500498000000e000e0
:1018500068003200680890000a004000600c9800a0
:101860008a845400edff3700180990000200e00060
:101870000c003400c8019000e8009000580090006f
:1018800003000100500498008080eb000000e0009d
:1018900059003200e80890001808900000804000cd
:1018a000600c9800a80c90000900e00011003400c2
:1018b00009057800e28f5400010036002a0020005c
:1018c000c80190000a017800ec8057005800900091
:1018d00003000100500498000000e00045003200c1
:1018e000680890000a004000600c98008a84540048
:1018f000edff3700380990000200e0000e003400d0
:10190000e80090001808900080804000c801900016
:101910005800900003000100500498008080eb0004
:101920000000e00034003200e80890003808900021
:1019300000804000600c9800c80c90000900e00096
:101940001100340009057800e28f540001003600d0
:101950002a002000c80190000a017800ec8057009e
:101960005800900003000100500498000000e000bf
:1019700020003200680890000a004000600c9800c7
:101980008a845400edff3700081090008000eb00bf
:101990000028a300180032000b00e00016003400fd
:1019a0008b04780009057800e28f540001003600ae
:1019b0002a002000c80190000a017800ee8057003c
:1019c0005800900003000100500498000000e0005f
:1019d00008003200680890000a004000600c98007f
:1019e0008a8454004240a900eeff3c008000eb00d6
:1019f000010037008080eb00010078004f0678007e
:101a00004f05be004f04be000080fa000000060033
:101a10000108780000000600839f68000100e000d4
:101a200002003d0060001000e08018000300e000ac
:101a300002003d0060011100e0811900050007006f
:101a40004f00e00002003b0060001000e080180042
:101a5000000006006022b800060220000000d0004e
:101a60008180d2000482d2008582d2000000a000d2
:101a70000202520083825a00030031000202420037
:101a800083824a000000a1000603e900f3ff3a0048
:101a900000000600efff07000400be000000060083
:101aa000889fbe008a9fbe0030044200b0844a0076
:101ab00030054b0090854b006000b1000898be00d7
:101ac0000a90be000440e10005c8e10006d0e10034
:101ad00007d8e10002003100680040001008e8006b
:101ae0004f05be004f04be0000000600889fbe00e8
:101af0008a9fbe003004be002005be0004185400ba
:101b000005985c0006185d0007985d001100200034
:101b10000440e10005c8e10006d0e10007d8e1007b
:101b2000010039008000eb00108810004f05be0056
:101b30004f04be00000006001200fa00889fbe009d
:101b40008a9fbe008c9fbe00e0b79f00f1b79f0048
:101b500082bf9f0093bf9f000605be000404be0025
:101b60000000eb00d0b79f00c0b79f00b0b79f0048
:101b7000a0b79f0090b79f000006eb005fb19700f1
:101b8000cfb09700820141003fb097000200e00013
:101b900004003d00370007007e805700c0ff0700ab
:101ba00003003700330007007e805700cfff070097
:101bb000dfb697000d00e0000c0035006fb2970013
:101bc000ffb297000fbb97009fbb9700100020004b
:101bd000010020006011b8000002720081827200d2
:101be00002037300838373001b0007000c06e800e8
:101bf00001042000810f5600e0ff3a000d00e000d4
:101c000004003d000802be000a03be007e805700ab
:101c1000a3ff07005fa897000000e00005003a005e
:101c20001fb29700afb297003fb39700cfb39700b2
:101c3000090007006fb09700ffb097000fb9970039
:101c40009fb997004f06be004f05be004f04be006f
:101c50000080fa00000006000100070000000600f6
:101c6000a4b79f00b5b79f00c6b79f00d7b79f0026
:101c7000000006004f09de0082817100b3b79f00ab
:101c80004f01de008180400082807000a1b79f007c
:101c90008fb097004f09de00000040000200700086
:101ca00090b79f007fa897004f01de008180400021
:101cb0008280700081b79f000d0007004f3ade0060
:101cc0000000400004007000f0af9f000800070013
:101cd0000402420085824a0006034b0087834b00c2
:101ce000dfff07000802be000a03be000000060076
:101cf0002fb29700bfb297004fb39700dfb39700a2
:101d000000000600881f780018002000881f780057
:101d100089ff07008f87e9004f0478000000060064
:101d2000801feb0084ff07008f87e900000006009a
:101d3000889fbe008a9fbe00e00f5000e08f5800d1
:101d4000e00f5900e08f59000c003d006044b800de
:101d50006055b8000000540081805c0002015d0005
:101d600083815d00180020001500070008003d0079
:101d7000180007000004eb00050037000004eb002a
:101d80000f00070002003d001200070018002000ad
:101d9000dcff07000800e000060032006022b80007
:101da0006033b8000000520081805a0002015b00dd
:101db00083815b004f05be004f04be00000006009b
:101dc000e00f5200e08f5a00e00f5b00e08f5b00f5
:101dd000000006006044b8006055b80004025400da
:101de00085825c0006035d0087835d0000000600bd
:101df000889fbe008a9fbe008c1f7800e00f5000b5
:101e0000e08f5800e00f5900e08f59000d003d00b1
:101e10006044b8006055b8000000540081805c0048
:101e200002015d0083815d001c0020000820e100ac
:101e300009a8e1000ab0e1000bb8e1000d003d0087
:101e4000080037000006eb00e00f5200e08f5a0058
:101e5000e00f5b00e08f5b0006003d006044b800cf
:101e60006055b8000402540085825c0006035d00e2
:101e700087835d00aaff07000c00e0000600320027
:101e80006022b8006033b8000000520081805a0020
:101e900002015b0083815b004f0678004f05be00a6
:081ea0004f04be000000060023
:020000040000fa
:101ea800020400000e0100000f1100000f000000e6
:101eb800020400000e1100001f1000000e000000b8
:101ec800020400000c040000040400000e000000de
:101ed800020400000e110000111100000e000000a5
:101ee8000204000011110000111300000d00000091
:101ef8000a00000011110000111300000d0000007d
:101f0800050a000011110000111300000d00000067
:101f1800050a00000e110000111100000e0000005b
:101f2800754d00004f470000492000007631000041
:101f38002e30000020720000656100006479000006
:101f4800004500005343000020200000202000002e
:101f58002020000020000000463100002020000062
:101f68002020000020200000202000000046000063
:101f78003220000020200000202000002020000047
:101f88002000000046330000202000002020000030
:101f9800202000002020000000460000342000001f
:101fa8002020000020200000202000002000000049
:101fb80046350000202000002020000020200000de
:101fc80020200000004600003620000020200000ed
:101fd80020200000202000002000000046370000dc
:101fe80020200000202000002020000020200000e9
:101ff80000460000382000002020000020200000bb
:1020080020200000200000004639000020200000a9
:1020180020200000202000002020000000460000b2
:102028003130000020200000202000002020000087
:102038002000000046310000312000002020000070
:10204800202000002020000000460000313200005f
:102058002020000020200000202000002000000098
:1020680053630000726f00006c6c00004c6f00003e
:10207800636b0000006000002020000020200000aa
:102088002020000020200000200000003120000057
:102098002020000020200000202000002020000038
:1020a8000032000020200000202000002020000036
:1020b8002020000020000000332000002020000025
:1020c8002020000020200000202000000034000014
:1020d80020200000202000002020000020200000f8
:1020e80020000000352000002020000020200000f3
:1020f80020200000202000000036000020200000e2
:1021080020200000202000002020000020000000e7
:1021180037200000202000002020000020200000a0
:1021280020200000003800002020000020200000af
:10213800202000002020000020000000392000009e
:102148002020000020200000202000002020000087
:102158000030000020200000202000002020000087
:1021680020200000200000002d200000202000007a
:10217800202000002020000020200000003d00005a
:102188002020000020200000202000002020000047
:102198002000000042610000636b000073700000c3
:1021a80061630000652000000054000061620000c7
:1021b8002020000020200000202000002000000037
:1021c80051200000202000002020000020200000d6
:1021d80020200000005700002020000020200000e0
:1021e80020200000202000002000000045200000e2
:1021f80020200000202000002020000020200000d7
:1022080000520000202000002020000020200000b4
:1022180020200000200000005420000020200000a2
:10222800202000002020000020200000005900008d
:102238002020000020200000202000002020000096
:102248002000000055200000202000002020000071
:10225800202000002020000000490000202000006d
:102268002020000020200000202000002000000086
:102278004f20000020200000202000002020000027
:102288002020000000500000202000002020000036
:102298002020000020200000200000005b2000001b
:1022a8002020000020200000202000002020000026
:1022b800005d0000202000002020000020200000f9
:1022c80020200000200000005c20000020200000ea
:1022d80020200000202000002020000000430000f3
:1022e80061700000732000004c6f0000636b0000f9
:1022f80020000000412000002020000020200000d5
:1023080020200000202000000053000020200000b2
:1023180020200000202000002020000020000000d5
:102328004420000020200000202000002020000081
:10233800202000000046000020200000202000008f
:10234800202000002020000020000000472000007e
:102358002020000020200000202000002020000075
:10236800004800002020000020200000202000005d
:1023780020200000200000004a200000202000004b
:10238800202000002020000020200000004b00003a
:102398002020000020200000202000002020000035
:1023a800200000004c200000202000002020000019
:1023b8002020000020200000003b0000202000001a
:1023c8002020000020200000202000002000000025
:1023d80027200000202000002020000020200000ee
:1023e80020200000004500006e74000065720000a7
:1023f800202000002020000020000000536800007a
:102408006966000074200000284c000029200000a4
:10241800005a00002020000020200000202000009a
:10242800202000002000000058200000202000008c
:102438002020000020200000202000000043000091
:102448002020000020200000202000002020000084
:10245800200000005620000020200000202000005e
:102468002020000020200000004200002020000062
:102478002020000020200000202000002000000074
:102488004e20000020200000202000002020000016
:1024980020200000004d0000202000002020000027
:1024a8002020000020200000200000002c20000038
:1024b8002020000020200000202000002020000014
:1024c800002e000020200000202000002020000016
:1024d80020200000200000002f2000002020000005
:1024e80020200000202000002020000000530000d1
:1024f8006869000066740000202800005229000066
:102508002000000043740000726c000020280000c6
:102518004c29000020200000004100006c740000dd
:10252800202800004c290000202000002000000086
:102538005370000061630000656200006172000072
:1025480020200000004e0000756d0000204c0000a7
:102558006f6300006b200000200000002a200000ac
:102568002020000020200000202000002020000063
:10257800002b000020200000202000002020000068
:1025880020200000200000004e2f00004120000005
:102598002020000020200000202000000030000043
:1025a8007825000030320000782d00003e2500001c
:1025b800732000000025000030340000782500005a
:1025c8003034000078250000303400007825000001
:0825d80030340000780000001f
:020000040000fa
:1025e0000000fa0000002300203a8800900220003a
:1025f000303a880000000000113a800000022000fc
:10260000008060000000e000fbff320040a7a9004e
:10261000f0ff200040168800c8c2a900c8a2a80088
:10262000c8e2a800c042a900113a8000f00b2000c7
:1026300000816000600420007105200023742000e8
:10264000804978008149780082497800103a8000fa
:10265000000178000210a000600420007105200035
:1026600023742000804978008149780082497800ed
:1026700001348000f00f2e00808060000070200088
:102680000100700000348800103a800000017800da
:102690000260a00060042000710520002374200067
:1026a000804978008149780082497800f0ff210054
:1026b00060198800c442a8008680a9008220a80072
:1026c000700580007000b300700588009680a80037
:1026d000000028001008880021058000f0ff280075
:1026e0000080600000e0a000200588008460a90050
:1026f0009460a90005e1a8000421a8002108800039
:10270000f0fc2f00008060002008880005a1a900cf
:102710001002200050f8070000408800b0002000a0
:102720004df8070010408800004080000000e000e5
:1027300003003a00cda2a8000040fe00feff3700d3
:1027400000408000020220000102200073f8070010
:102750005c020700004080001201200041f92800bf
:1027600067f80700810207000628ef00a480200018
:1027700010002000010020006011b800009abe0087
:102780000292be00248120006000b8006011b800f1
:10279000009abe000292be00a48120006000b80032
:1027a0006011b800009abe000292be000868ef00f7
:1027b000ccc2a900004080000202200001022000db
:1027c00056f80700a08120005001be004000be0066
:1027d0008301d1000281d3008180d3000080d30027
:1027e0000040780008e8b70008c8bf000080fb0080
:1027f0006101b9000080eb008080eb000200400026
:10280000838048002208200003002000820f50002f
:10281000838f580083013e00006001009d00370057
:10282000800137008f0037008800370081003700b3
:1028300083003700a00037007a0137009800370086
:10284000910037008a00370083003700ca00370044
:102850009f00370073013700720137003e013700d7
:10286000160137006f01370038013700c500370007
:102870009a0037006b0137006a01370069013700a1
:1028800011013700ec003700e8003700c0003700c6
:1028900095003700630137006201370010013700ef
:1028a0000c013700e7003700bc0037009400370008
:1028b000900037005b0137005a01370029013700cb
:1028c0000a013700e2003700ba003700b6003700cf
:1028d0008e003700530137005201370009013700dd
:1028e00005013700e0003700dc003700b400370096
:1028f000890037004b0137004a0137004901370092
:1029000003013700db003700b000370085003700d7
:10291000870037004301370042013700ff003700ce
:10292000d7003700ac003700ae0037008600370014
:10293000820037003b0137003a013700fa003700c8
:10294000fc003700d1003700d3003700a800370063
:102950008000370033013700320137003101370082
:10296000d00037002f013700a40037007c0037006b
:102970002c0137002b013700a9003700f000370089
:10298000cb003700a000370026013700a100370038
:1029900024013700230137002201370021013700cd
:1029a000200137001f0137001e0137001d013700cd
:1029b0006e0037001b0137001a0137000a0137008b
:1029c00018013700ff003700f2003700150137000b
:1029d00014013700130137000c0137000e013700d6
:1029e00004013700fa003700fc003700ec00370024
:1029f0000d003700de0037002c003700ee003700f6
:102a0000ff003700e0003700dc003700e700370048
:102a10002c003700030137000201370001013700a5
:102a2000000137001500370050fa280010408800d8
:102a3000ff00370000fb280010408800fc00370032
:102a4000b0fb280010408800f900370060fc280027
:102a500010408800f600370010fd28001040880064
:102a6000f3003700c0fd280010408800f000370058
:102a700070fe280010408800ed00370020ff28007d
:102a800010408800ea003700d0ff2800104088007e
:102a9000e70037008000290010408800e40037007c
:102aa0003001290010408800e1003700e0012900d2
:102ab00010408800de003700900229001040880096
:102ac000db0037004003290010408800d8003700a1
:102ad000f003290010408800d5003700a004290029
:102ae00010408800d20037005005290010408800af
:102af000cf0037000006290010408800cc003700c6
:102b0000b006290010408800c9003700600729007e
:102b100010408800c60037001008290010408800c7
:102b2000c3003700c008290010408800c0003700eb
:102b30007009290010408800bd003700200a2900d4
:102b400010408800ba003700d00a290010408800e1
:102b5000b7003700800b290010408800b400370010
:102b6000300c290010408800b1003700e00c29002b
:102b700010408800ae003700900d290010408800fa
:102b8000ab003700400e290010408800a800370035
:102b9000f00e290010408800a5003700a00f290082
:102ba00010408800a2003700501029001040880013
:102bb0009f00370000112900104088009c0037005a
:102bc000b0112900104088009900370060122900d8
:102bd000104088009600370010132900104088002c
:102be00093003700c0132900104088009000370080
:102bf00070142900104088008d003700201529002e
:102c0000104088008a003700d01529001040880045
:102c100087003700801629001040880084003700a4
:102c2000301729001040880081003700e017290084
:102c3000104088007e00370090182900104088005e
:102c40007b003700401929001040880078003700c9
:102c5000f01929001040880075003700a01a2900db
:102c60001040880072003700501b29001040880077
:102c70006f003700001c2900104088006c003700ee
:102c8000b01c29001040880069003700601d290031
:102c90001040880066003700101e29001040880090
:102ca00063003700c01e2900104088006000370014
:102cb000701f2900104088005d0037002020290087
:102cc000104088005a003700d020290010408800aa
:102cd0005700370080212900104088005400370039
:102ce000302229001040880051003700e0222900de
:102cf000104088004e0037009023290010408800c3
:102d00004b0037004024290010408800480037005d
:102d1000f02429001040880045003700a025290034
:102d200010408800420037005026290010408800db
:102d30003f00370000272900104088003c00370082
:102d4000b02729001040880039003700602829008a
:102d500010408800360037001029290010408800f4
:102d600033003700c02929001040880030003700a8
:102d7000702a2900104088002d003700202b2900e0
:102d8000104088002a003700800b2900104088007e
:102d900027003700c00829001040880024003700b1
:102da000700929001040880021003700200a2900fe
:102db000104088001e003700d02b290010408800ea
:102dc0001b003700b00629001040880018003700ab
:102dd00060072900104088001500370010082900fe
:102de0001040880012003700a0042900104088001d
:102df0000f00370050052900104088000c003700f4
:102e0000000629001040880009003700d00a290078
:102e10001040880006003700502629001040880026
:102e200003003700802c29001040880000000000bb
:102e30001240800008c8bf008080fb000040800076
:102e4000821f7800811f7800312d2900811f7800b2
:102e5000caf60700e6875700a08120005001be0097
:102e60004000be0000037800a08120005001be0099
:102e70004000be000100780080027800a0812000a0
:102e80005001be004000be00020078000002780041
:102e9000a08120005001be004000be000300780069
:102ea000800078000040800070004000861f78009d
:102eb000851f7800841f7800811f7800f12d29007c
:102ec000811f7800adf60700ea875700a7000700ca
:102ed000d0d4210071092000f000070035fe370032
:102ee0000400fa00204798003147980060168000df
:102ef000000f78002e40900061406000614060004b
:102f0000614060000080fb00610060004c00dd005b
:102f100062168000f1ff2e00810061000100700048
:102f2000601688002e4090000000fb0062006000e8
:102f30000080d10000407800614060000080fb000c
:102f4000610060004d00dd0062168000f1ff2d0081
:102f50008100610001007000601688002e40900022
:102f60000000fb00640060004280de00004078004a
:102f7000614060000080fb00610060004e00dd00e9
:102f800062168000f1ff2b008100610001007000db
:102f9000601688002e4090000000fb006800600072
:102fa0004380de0000407800614060000080fb004c
:102fb0004f00dd0062168000f1ff270081006100f4
:102fc00001007000601688003e4090006140600083
:102fd0000080fb006100600022168000e1ff2f00ee
:102fe000810061000100700020168800c422a80042
:102ff00000000000000000000000000000000000d1
:10300000c422a9001e00780060168800006320001a
:1030100001002000a10007000080fa000000060067
:103020000400fa0020479800314798002e40900095
:103030008000fb00000f2000008060004480de0064
:10304000004f7800be4090001e407800a4ff0700ab
:103050002e4090006f4f6000be4090001e407800f0
:103060009fff07000080fa00000006000200fa003f
:103070008040eb0000c4b300e9ff07000000eb0054
:10308000000f78000600370040f528001e004000c1
:103090001040780011c0b300e1ff07001e0fe800e8
:1030a000f00320009e007800808f5000f6ff34006f
:1030b0008040eb0000c8b300d9ff07000080fa0091
:1030c000000006000000fa00c002a900c022a9000a
:1030d000f0902300e1012000700007008040eb0029
:1030e00030c0b3007eff0700405b200031002000ad
:1030f0006a0007008040eb0030c0b30078ff070093
:1031000090f7200001002000640007008040eb00e1
:1031100030c0b30072ff07008040eb0020c0b30056
:103120006fff07008040eb0080c2b300bcff0700c8
:103130008040eb00f0c0b300b9ff07008040eb0017
:1031400060c0b300b6ff07008040eb0010c0b300c2
:10315000b3ff0700807b2500310120004f000700ee
:10316000c2ff07000080fa00000006000200fa001b
:103170008040eb0000c8b300a9ff07000000eb008f
:10318000000f780007003700014080001e00780023
:10319000008040001040780011c0b300a0ff07007d
:1031a0001e0fe8001e007800ef0f5000f6ff3400fd
:1031b0008040eb0000ccb30099ff07000001200025
:1031c000000f780007003700014080001e007800e3
:1031d000008040001040780011c0b30090ff07004d
:1031e0001e0fe8001e007800ff0f5000f6ff3400ad
:0831f0000080fa000000060057
:020000040000fa
:1031f8000008000022000000000000006208000033
:103208000200000002000000040000005e08000048
:103218000400000000000000440800001a0000003c
:1032280002000000686a6c00747a4c00000001001b
:103238000002000004000800001000000000200048
:103248002b2d23003000000022080000220000007f
:103258000200000030313200333435003637380090
:1032680039414200434445004600300031323300c2
:1032780034353600373839006162630064656600aa
:1032880000000000640800000200000000000000c8
:043298000000000032
:020000040000fa
:10329c00f03fb1000180b10006003500ee030900db
:1032ac0000000000403fb1000180b100fbff3d0079
:1032bc001000b000203fb000020035000080090073
:0832cc000000000000000600f4
:020000040000fa
:0200000401f009
:04000000ffff0000fe
:020000040000fa
:0200000401f009
:04000400ffff0000fa
:020000040000fa
:0200000401f009
:04000800ffff0000f6
:020000040000fa
:0200000401f009
:04000c0001000000ef
:020000040000fa
:0200000401f009
:04001000a300000049
:020000040000fa
:0200000401f009
:040014005f00000089
:020000040000fa
:0200000401f009
:04001800f7000000ed
:020000040000fa
:0200000401f009
:04001c00dfff000002
:00000001FF
